:020000040000FA
:100000000C9479030C94A1030C94A1030C94470B5A
:100010000C94470B0C94470B0C94A1030C94A10374
:100020000C94A1030C94A1030C94A1030C94A103C0
:100030000C94A1030C94A1030C94A1030C94A103B0
:100040000C94A50A0C94A1030C94150B0C94EF0AC4
:100050000C94A1030C94A1030C94A1030C94A10390
:100060000C94A1030C94A10308000000BE92244943
:10007000123EABAAAA2ABECDCCCC4C3E00000080DA
:10008000BEABAAAAAA3E00000000BF000000803F4D
:100090000000000000084178D3BB4387D1133D190D
:1000A0000E3CC3BD4282AD2B3E68EC8276BED98F3A
:1000B000E1A93E4C80EFFFBE01C4FF7F3F0000007E
:1000C000000000407A10F35A00A0724E1809001088
:1000D000A5D4E80000E87648170000E40B540200BD
:1000E00000CA9A3B000000E1F505000080969800E8
:1000F000000040420F000000A08601000000102711
:1001000000000000E80300000000640000000000A0
:100110000A00000000000100000000002C76D888D2
:10012000DC674F0823DFC1DFAE59E1B1B796E5E3E5
:10013000E453C63AE651997696E8E6C28426EB89FE
:100140008C9B62ED407C6FFCEFBC9C9F40F2BAA59B
:100150006FA5F490055A2AF75C936B6CF9676DC133
:100160001BFCE0E40D47FEF520E6B500D0ED902E37
:100170000300943577050080841E080000204E0A95
:10018000000000C80C333333330F986E12831141D3
:10019000EF8D2114893BE65516CFFEE6DB18D1849E
:1001A0004B381BF77C1D901DA4BBE42420328472C5
:1001B0005E228100C9F124ECA1E53D274300432CD8
:1001C00020536B696E2074656D703A20005B425459
:1001D0005D2057617465722074656D703A2000452A
:1001E00052524F523A005B50554D505D2053746F40
:1001F00070706564002529002028005B50554D5023
:100200005D205370656564206368616E6765642076
:10021000746F3A200000526561647920666F722025
:10022000636F6D6D616E64732E2E2E003D3D3D3DFE
:100230003D3D3D3D3D3D3D3D3D3D3D3D3D3D3D3DEE
:100240003D3D3D3D3D3D3D3D3D3D3D3D3D3D3D3DDE
:100250003D3D3D3D004261756420526174653A2028
:1002600000312E302E300056657273696F6E3A2061
:10027000005465737469636F6F6C5F50726F746F55
:1002800074797065004465766963653A20002900D9
:100290002F44004D6F64653A20536F667477617226
:1002A0006553657269616C202844003D3D3D3D3DCC
:1002B0003D3D3D3D3D3D3D3D3D3D3D3D3D3D3D3D6E
:1002C0003D3D3D3D3D3D3D3D3D3D3D3D3D3D3D3D5E
:1002D0003D3D3D0020205445535449434F4F4C2051
:1002E000424C5545544F4F544820494E495449417A
:1002F0004C495A4544003D3D3D3D3D3D3D3D3D3D24
:100300003D3D3D3D3D3D3D3D3D3D3D3D3D3D3D3D1D
:100310003D3D3D3D3D3D3D3D3D3D3D3D3D3D000087
:100320005B50554D505D20496E697469616C697A06
:100330006564202D2053746174653A204F46460051
:10034000005B53455455505D2053797374656D209F
:100350007265616479202D206177616974696E67C7
:1003600020636F6D6D616E6473005B53455455502F
:100370005D205465737469636F6F6C20696E697476
:1003800069616C697A6174696F6E20636F6D706CFE
:10039000657465005B425554544F4E5D20546F6741
:1003A000676C6520627574746F6E2070726573730C
:1003B0006564202D2050756D70204F4E005B4255B6
:1003C00054544F4E5D20546F67676C65206275749E
:1003D000746F6E2070726573736564202D20507584
:1003E0006D70204F4646004F4B005B42545D2045E8
:1003F00052524F523A20556E6B6E6F776E20636F7C
:100400006D6D616E643A20005B42545D20436F6DF8
:100410006D616E643A205370656564207365742065
:10042000746F20005B42545D20436F6D6D616E649C
:100430003A2054656D7065726174757265207265DD
:1004400071756573746564005B42545D20436F6D24
:100450006D616E643A2053746174757320726571B6
:10046000756573746564005B42545D20436F6D6D08
:10047000616E643A2050756D70207475726E65649B
:10048000204F4646005B42545D20436F6D6D616EA8
:10049000643A2050756D70207475726E6564204FDB
:1004A0004E005B42545D2052656365697665642049
:1004B000636F6D6D616E643A20005B42545D204550
:1004C00052524F523A20436F6D6D616E64206275D7
:1004D00066666572206F766572666C6F7700206D58
:1004E000696E75746573005B50554D505D20527593
:1004F0006E74696D653A20005B50554D505D205318
:1005000041464554593A204D6178696D756D2072A8
:10051000756E74696D6520657863656564656420D2
:100520002D206175746F2D73746F7070696E670024
:100530005B50554D505D20454D455247454E435902
:100540002053544F50204143544956415445440090
:100550005B50554D505D204552524F523A204361F9
:100560006E6E6F7420736574207370656564202DE2
:100570002070756D70206973206E6F742072756EB7
:100580006E696E67002529002028005B504F545D7E
:10059000204D616E75616C207370656564206164C7
:1005A0006A75737465643A200043202D206D61796B
:1005B000206E6F7420636F6F6C2065666665637470
:1005C0006976656C79005B5741524E494E475D2014
:1005D00057617465722074656D703A200043005B4A
:1005E0004D41494E5D204F564552484541542044A7
:1005F000455445435445443A20005B4D41494E5DC6
:100600002053656E64696E6720706572696F6469F6
:100610006320737461747573207570646174650010
:100620005B4D41494E5D2053616665747920736866
:1006300075746F66662074726967676572656400B9
:1006400000000000240027002A002529002028009F
:100650005B50554D505D2053746172746564202D5C
:100660002053706565643A20005B50554D505D2005
:100670004552524F523A2043616E6E6F742073742C
:100680006172742070756D70202D206572726F72AA
:10069000207374617465206163746976650000007D
:1006A0000008000201000003040700000000000031
:1006B00000000000000023002600290000000000C8
:1006C000250028002B00040404040404040402028E
:1006D00002020202030303030303010204081020C1
:1006E0004080010204081020010204081020BF0B02
:1006F000751211241FBECFEFD8E0DEBFCDBF12E0D0
:10070000A0E0B1E0ECEEF6E302C005900D92AC3A49
:10071000B107D9F724E0ACEAB2E001C01D92A131E3
:10072000B207E1F713E0C8E7D3E004C02197FE0168
:100730000E948718C737D107C9F70E946A0C0C942A
:10074000691B0C940000833081F028F4813099F00B
:100750008230A9F008958730A9F08830C9F084303C
:10076000B1F4809180008F7D03C0809180008F77ED
:1007700080938000089584B58F7784BD089584B5F3
:100780008F7DFBCF8091B0008F778093B00008956C
:100790008091B0008F7DF9CF1F93CF93DF93282FE7
:1007A00030E0F901E256F94F8491F901E652F94F30
:1007B000D491F901EA53F94FC491CC23A9F0162F33
:1007C00081110E94A303EC2FF0E0EE0FFF1FE45411
:1007D000F94FA591B4918FB7F894EC91111108C01D
:1007E000D095DE23DC938FBFDF91CF911F910895C9
:1007F000DE2BF8CFCF93DF9390E0FC01E652F94F68
:1008000024918A53994FFC0184918823C9F090E088
:10081000880F991FFC01E05CF94FA591B491FC0190
:10082000E454F94FC591D49161110DC09FB7F8946C
:100830008C91209582238C938881282328839FBFC5
:10084000DF91CF910895623051F49FB7F8943C91B5
:10085000822F809583238C93E8812E2BEFCF8FB747
:10086000F894EC912E2B2C938FBFEACFCF93DF938C
:10087000EC0161E089E00E94FA03209731F460E026
:1008800089E0DF91CF910C94CC03CF3FD10511F4D7
:1008900061E0F6CFE7EAF6E0E491E33029F140F4D5
:1008A000E130B1F0E230D9F0C038D1058CF7E7CFB4
:1008B000E73021F1E83051F1E430B1F78091800068
:1008C000806280938000D0938B00C0938A0004C024
:1008D00084B5806884BDC7BDDF91CF91089584B58C
:1008E000806284BDC8BDF8CF80918000806880930D
:1008F0008000D0938900C0938800EECF8091B00033
:1009000080688093B000C093B300E6CF8091B000C0
:1009100080628093B000C093B400DECF8E3008F0C8
:100920008E508770806480937C0080917A00806410
:1009300080937A0080917A0086FDFCCF80917800C8
:100940009091790008953FB7F89480914A0390916F
:100950004B03A0914C03B0914D0326B5A89B05C055
:100960002F3F19F00196A11DB11D3FBFBA2FA92F2E
:10097000982F8827BC01CD01620F711D811D911D2B
:1009800042E0660F771F881F991F4A95D1F7089597
:100990008F929F92AF92BF92CF92DF92EF92FF928F
:1009A0006B017C010E94A3044B015C01C114D104C2
:1009B000E104F104B9F00E94A304681979098A09D5
:1009C0009B09683E73408105910580F321E0C21ABE
:1009D000D108E108F10888EE880E83E0981EA11C7A
:1009E000B11CE4CFFF90EF90DF90CF90BF90AF901D
:1009F0009F908F9008952FB7F8946091460370915F
:100A0000470380914803909149032FBF0895EF92C7
:100A1000FF920F931F93CF93DF938C017B01D0E064
:100A2000C0E0F701EC0FFD1F6491662361F0D8016F
:100A3000ED91FC910190F081E02DC8010995892B81
:100A400011F02196EECFCE01DF91CF911F910F9142
:100A5000FF90EF900895AF92BF92CF92DF92EF9206
:100A6000FF920F931F93CF93DF936C017B018B0158
:100A7000040F151FEB015E01AE18BF08C017D107A8
:100A800059F06991D601ED91FC910190F081E02D32
:100A9000C6010995892B79F7C501DF91CF911F9187
:100AA0000F91FF90EF90DF90CF90BF90AF9008959F
:100AB000FC01538D448D252F30E0842F90E0821B64
:100AC000930B541710F0CF96089501970895FC01E9
:100AD000918D828D981761F0A28DAE0FBF2FB11D41
:100AE0005D968C91928D9F5F9F73928F90E0089599
:100AF0008FEF9FEF0895FC01918D828D981731F053
:100B0000828DE80FF11D858D90E008958FEF9FEFA6
:100B10000895FC01918D228D892F90E0805C9F4F7C
:100B2000821B91098F739927089585E593E00E94B0
:100B3000890521E0892B09F420E0822F089580E0C7
:100B400090E0892B29F00E94950581110C940000FA
:100B50000895FC01A48DA80FB92FB11DA35ABF4F52
:100B60002C91848D90E001968F739927848FA689AC
:100B7000B7892C93A089B1898C91837080648C9300
:100B8000938D848D981306C00288F389E02D8081AF
:100B90008F7D80830895EF92FF920F931F93CF93E1
:100BA000DF93EC0181E0888F9B8D8C8D98131AC0A8
:100BB000E889F989808185FF15C09FB7F894EE898F
:100BC000FF896083E889F9898081837080648083EC
:100BD0009FBF81E090E0DF91CF911F910F91FF9037
:100BE000EF900895F62E0B8D10E00F5F1F4F0F73DF
:100BF0001127E02E8C8D8E110CC00FB607FCFACF9A
:100C0000E889F989808185FFF5CFCE010E94A90589
:100C1000F1CFEB8DEC0FFD2FF11DE35AFF4FF0826A
:100C20009FB7F8940B8FEA89FB8980818062CFCFD0
:100C3000CF93DF93EC01888D8823B9F0AA89BB8913
:100C4000E889F9898C9185FD03C0808186FD0DC0FE
:100C50000FB607FCF7CF8C9185FFF2CF808185FF1F
:100C6000EDCFCE010E94A905E9CFDF91CF91089584
:100C70002091EE023091EF022817390771F490911C
:100C8000EC028091ED02981741F0E091EC02F0E067
:100C9000E455FD4F808190E008958FEF9FEF089518
:100CA0000895EF92FF920F931F93CF93DF93DC0190
:100CB0005C96ED90FC905D97E114F10479F481E08D
:100CC00090E013969C938E93129790E080E0DF91D2
:100CD000CF911F910F91FF90EF9008955196ED9154
:100CE000FC91529750968C915097982F90950FB7F2
:100CF0005E962C915E97122F127021FD6095F894EC
:100D00002081112319F1282B2083E7012197F1F786
:100D100028E0462F50E0308160FF1AC0382B308326
:100D2000E7012197F1F7BA0175956795215089F789
:100D3000112381F08081892380830FBF5C968D9180
:100D40009C910197F1F781E090E0C1CF2923DCCF9E
:100D50003923E5CF9081892BEFCF2091EE0230919E
:100D6000EF022817390761F48091ED022091EC021F
:100D700090E0805C9F4F821B91098F7399270895A3
:100D800090E080E008952091EE023091EF02281764
:100D90003907B9F49091EC028091ED02981789F02F
:100DA000E091EC02F0E0E455FD4F80812091EC02EF
:100DB00030E02F5F3F4F2F7333272093EC0290E0FA
:100DC00008958FEF9FEF089590E080E00895CF920F
:100DD000DF92EF92FF928091530390915403C12CC4
:100DE000D12C76010197B9F4C0904E03D0904F03F7
:100DF000E0905003F0905103C114D104E104F104D8
:100E000051F00E94FB049B01AC012C193D094E09D5
:100E10005F0969017A01C701B601FF90EF90DF9089
:100E2000CF900895FB0101900020E9F73197AF01C1
:100E3000461B570BDC01ED91FC910280F381E02D04
:100E400009948F929F92AF92BF920F931F93CF936B
:100E5000DF93CDB7DEB7A1970FB6F894DEBF0FBE14
:100E6000CDBF19A2423008F44AE08E010F5D1F4F3A
:100E7000842E912CB12CA12CA50194010E946D15FA
:100E8000E62FB901CA01EA3004F5E05DD801EE931E
:100E90008D01232B242B252B79F790E080E01097F0
:100EA00029F0BD0185E593E00E941207A1960FB6D7
:100EB000F894DEBF0FBECDBFDF91CF911F910F9190
:100EC000BF90AF909F908F900895E95CDFCFCF9255
:100ED000DF92EF92FF92CF93DF936C01990FEE08B0
:100EE000FF08F7FE19C06DE285E593E00E94CB058F
:100EF000EC0166277727CB016C197D098E099F09C4
:100F00004AE00E9421078C0F9D1FDF91CF91FF9037
:100F1000EF90DF90CF9008954AE0C701B601DF91CE
:100F2000CF91FF90EF90DF90CF900C9421074F92DC
:100F30005F926F927F928F929F92AF92BF92CF9269
:100F4000DF92EF92FF920F931F93CF936B017C017F
:100F5000742EAC019B010E9425186CE271E0811196
:100F600026C046015701E894B7F82FEF3FEF4FE74F
:100F70005FE7C501B4010E94251881110CC02FEF55
:100F80003FEF4FE75FE7C501B4010E940B1660E336
:100F900071E0181664F02FEF3FEF4FE75FE4C701F1
:100FA000B6010E9463171816ACF464E371E085E59E
:100FB00093E0CF911F910F91FF90EF90DF90CF9032
:100FC000BF90AF909F908F907F906F905F904F9069
:100FD0000C9412072FEF3FEF4FE75FECC701B6010C
:100FE0000E940B1687FDE1CF20E030E0A901C70188
:100FF000B6010E940B1610E000E087FF0AC06DE208
:1010000085E593E00E94CB058C01F7FAF094F7F8A0
:10101000F094C0E060E070E080E09FE37C1641F077
:1010200020E030E040E251E40E941016CF5FF6CF9E
:10103000A70196010E949F152B013C010E94821678
:101040004B015C014AE00E9421077C01E00EF11E89
:10105000CC23C1F1C501B4010E94B1169B01AC01C2
:10106000C301B2010E949E154B015C016EE285E551
:1010700093E00E94CB05E80EF91EC15018F120E064
:1010800030E040E251E4C501B4010E94B8172B01E1
:101090003C010E9482164B01B12CA12C4AE0C501F3
:1010A000B4010E942107E80EF91EC501B4010E9497
:1010B000B1169B01AC01C301B2010E949E154B0108
:1010C0005C01DBCFC701CF911F910F91FF90EF9093
:1010D000DF90CF90BF90AF909F908F907F906F9058
:1010E0005F904F9008950F931F93CF93DF93EC0180
:1010F0000E9412078C0168E371E0CE010E94120782
:10110000800F911FDF91CF911F910F910895BC0126
:1011100082EF93E00C947308CF93DF93EC016FEDB3
:1011200071E082EF93E00E940705BE0182EF93E039
:10113000DF91CF910C9473080F931F93CF93DF939C
:10114000EC010E9407058C0168E371E0CE010E946A
:101150001207800F911FDF91CF911F910F9108957A
:101160008091530390915403029741F469E676E02D
:1011700085E593E00E949C0880E0089561E088E0A6
:101180000E94CC0384EB90E00E94360481E090E062
:10119000909354038093530384EB809352030E94F3
:1011A000FB0460934E0370934F038093500390931E
:1011B000510360E576E085E593E00E9407054AE08B
:1011C00064EB70E080E090E00E9421076DE476E03F
:1011D00085E593E00E94070586E490E00E9467079A
:1011E0006AE476E085E593E00E949C0881E008953A
:1011F000CF93C82F90E00E943604C09352036BEF48
:1012000071E085E593E00E9407056C2F70E090E0A7
:1012100080E04AE00E94210768EF71E085E593E0F5
:101220000E94070524E6C29FC00111246FEF70E001
:101230000E945F18CB010E94670765EF71E085E5AA
:1012400093E00E949C0881E0CF91089560E088E0DF
:101250000E94CC0390E080E00E9436041092540378
:10126000109253031092520310924E0310924F03A8
:10127000109250031092510366EE71E085E593E001
:101280000C949C080E948E048F3F23E0920714F078
:101290008EEF93E0BC011816190614F061E070E0BF
:1012A000072E000C880B990B0E94B3169B01AC0112
:1012B00060E070EC8FE794E40E94101620E030E0CC
:1012C00040E85FE30E949E159B01AC0160E070E482
:1012D0008CE196E40E94101620E030E44CE156E4E4
:1012E0000E9410160E94701720E030EE46E755E489
:1012F0000E9410162FE03FEC4BE55BE30E949F1528
:101300009B01AC0160E070E080E89FE30E94101652
:1013100023E333E948E853E40E949E1508954F9271
:101320005F926F927F928F929F92AF92BF92CF9275
:10133000DF92EF92FF920F931F93CF93DF93CDB77E
:10134000DEB7CC52D1400FB6F894DEBF0FBECDBF92
:101350002091530330915403CE018B549F4F7C0155
:101360002330310508F0E1C0F901EE0FFF1FEE5FF9
:10137000FE4F808191812130310509F0D8C00E9453
:10138000E7064B015C010E94E706603427E772071D
:101390002BE18207910508F0C4C000E417E72BE1B8
:1013A00030E028013901461A570A680A790AC30150
:1013B000B20120E6422E2AEE522E612C712CA3019E
:1013C00092010E946D155F934F933F932F93C50138
:1013D000B401A30192010E946D155F934F933F9357
:1013E0002F938091520324E6829FC00111246FEF56
:1013F00070E00E945F187F936F9385EB91E09F935D
:101400008F9383E491E09F938F931F922F93FF928A
:10141000EF920E94BB180FB6F894DEBF0FBECDBF8F
:101420008EE090E00E94420920E030E0A9010E9495
:101430009F154B015C018FE090E00E94420920E083
:1014400030E0A9010E949F152B013C016DEC71E079
:1014500085E593E00E94070542E0C501B4010E94C2
:1014600097076EEB71E085E593E00E94070542E087
:10147000C301B2010E9497076CEB71E085E593E030
:101480000E949C086E0197EEC91A9EEFD90A860148
:1014900021E044E0C501B4010E9491125E012DEDEE
:1014A000A21A2EEFB20A850121E044E0C301B20185
:1014B0000E949112BF92AF92DF92CF92FF92EF9271
:1014C0008CE791E09F938F931F9284EB8F9302524E
:1014D00011401F930F930E94BB18B80182EF93E055
:1014E0000E9473080E94FB040FB6F894DEBF0FBE83
:1014F000CDBFC45DDE4F0FB6F894DEBF0FBECDBFCB
:10150000DF91CF911F910F91FF90EF90DF90CF90DF
:10151000BF90AF909F908F907F906F905F904F9013
:10152000089560E070E0CB0144CF8BE391E09F939E
:101530008F9383E791E09F938F931F9284E68F931D
:10154000FF92EF920E94BB1866CF1F920F920FB6C8
:101550000F9211242F933F938F939F93AF93BF9339
:101560008091460390914703A0914803B0914903AD
:101570003091450323E0230F2D3758F50196A11D27
:10158000B11D209345038093460390934703A09396
:101590004803B093490380914A0390914B03A09173
:1015A0004C03B0914D030196A11DB11D80934A03D8
:1015B00090934B03A0934C03B0934D03BF91AF9115
:1015C0009F918F913F912F910F900FBE0F901F9081
:1015D000189526E8230F0296A11DB11DD2CF1F92A8
:1015E0000F920FB60F9211242F933F934F935F9357
:1015F0006F937F938F939F93AF93BF93EF93FF93DB
:1016000085E593E00E94A905FF91EF91BF91AF910D
:101610009F918F917F916F915F914F913F912F910A
:101620000F900FBE0F901F9018951F920F920FB63C
:101630000F9211242F938F939F93EF93FF93E09139
:101640006503F09166038081E0916B03F0916C0378
:1016500082FD1BC0908180916E038F5F8F732091FC
:101660006F03821741F0E0916E03F0E0EB5AFC4FFC
:10167000958F80936E03FF91EF919F918F912F91A2
:101680000F900FBE0F901F9018958081F4CF1F927E
:101690000F920FB60F9211242F933F934F935F93A6
:1016A0006F937F938F939F93AF93BF93EF93FF932A
:1016B000E091EE02F091EF02309749F0A685B785F0
:1016C0008585968D91FF14C09C918923A1F4FF918B
:1016D000EF91BF91AF919F918F917F916F915F91AA
:1016E0004F913F912F910F900FBE0F901F90189523
:1016F0009C91892361F7A389B4899C918589809500
:1017000089238C93868997890197F1F7608D718D74
:10171000A685B785558538E020E0CB010197F1F724
:10172000822F90E095958795282F4C91452309F0BD
:101730002068315091F7868D81FD20958091ED02D2
:1017400090E001968F7399273091EC02381799F049
:10175000A091ED02B0E0A455BD4F2C938093ED0213
:10176000828D938D0197F1F7A389B4898C91958926
:10177000892B8C93ACCF868D8160868FF1CF1092B0
:1017800058031092570388EE93E0A0E0B0E08093F6
:10179000590390935A03A0935B03B0935C032CE02E
:1017A00031E0309356032093550325EC30E030931D
:1017B00062032093610324EC30E0309364032093B0
:1017C000630320EC30E0309366032093650321EC43
:1017D00030E0309368032093670322EC30E03093CD
:1017E0006A032093690326EC30E030936C03209366
:1017F0006B0310926E0310926F031092700310929D
:1018000071031092F5031092F4038093F603909302
:10181000F703A093F803B093F9038EE191E090935E
:10182000F3038093F20310920904109208041092BB
:101830000B0410920A0410920D0410920C041092E2
:101840000F0410920E04609110046E7F6D7F609300
:1018500010046695617081E068278BE00E94CC03DC
:1018600061E08BE00E94FA03E5EEF6E0E491E0939C
:101870000204E1EDF6E0E491F0E0EE0FFF1FE45426
:10188000F94F85919491909304048093030460E050
:101890008AE00E94FA038091100481FD04C061E097
:1018A0008AE00E94CC038AE08093FE03E4EEF6E037
:1018B000E491E093FF03E0EDF6E0E491F0E0EE0F59
:1018C000FF1FEE54F94F85919491909301048093FA
:1018D00000040895CF93DF93CDB7DEB7CA59D1097D
:1018E0000FB6F894DEBF0FBECDBF789484B582608A
:1018F00084BD84B5816084BD85B5826085BD85B5B4
:10190000816085BD80916E00816080936E00109231
:1019100081008091810082608093810080918100AC
:10192000816080938100809180008160809380003D
:101930008091B10084608093B1008091B00081609B
:101940008093B00080917A00846080937A008091C7
:101950007A00826080937A0080917A00816080931F
:101960007A0080917A00806880937A001092C1009A
:1019700010920D0410920C0410920B0410920A04A1
:1019800010920904109208048DE991E090930F04DD
:1019900080930E049091FE03963108F047C02DEB22
:1019A00030E030930904209308042BE931E03093B0
:1019B0000B0420930A042CE231E030930D042093B1
:1019C0000C042091680084E0983048F031E09E30AB
:1019D00008F430E081E001C0880F3A95EAF7822BE5
:1019E000809368002DE630E0983050F02BE630E030
:1019F0009E3030F02CE630E0963110F030E020E000
:101A00003093060420930504292F30E0983008F025
:101A1000CFC181E001C0880F9A95EAF7809307044F
:101A200080910E0490910F040197F1F780910C04BE
:101A300090910D04892B49F1E091EE02F091EF02B3
:101A400023E0E23FF20709F1309739F0A389B48926
:101A50009C918589809589238C93809110048E7F39
:101A6000809310041092ED021092EC0282EF93E04A
:101A70009093EF028093EE02E0910504F09106044A
:101A8000808190910704892B8083E0916503F09118
:101A9000660382E08083E0916103F091620310822B
:101AA000E0916303F09164038FEC808310926D03E7
:101AB000E0916903F0916A0386E08083E091670317
:101AC000F0916803808180618083E0916703F091E9
:101AD0006803808188608083E0916703F0916803E8
:101AE000808180688083E0916703F0916803808142
:101AF0008F7D808364E670E080E090E00E94C804FF
:101B00006FE173E085E593E00E949C0866EF72E068
:101B100085E593E00E949C0864ED72E085E593E022
:101B20000E949C086BEA72E085E593E00E949C08A5
:101B300063E972E085E593E00E9407058AE090E0A2
:101B40000E94670760E972E085E593E00E9407055F
:101B50008BE090E00E9467076EE872E085E593E015
:101B60000E949C0865E872E085E593E00E94070505
:101B700061E772E085E593E00E949C0867E672E009
:101B800085E593E00E94070561E672E085E593E054
:101B90000E949C0865E572E085E593E00E940705D8
:101BA00080E895E20E94670768E371E085E593E0CD
:101BB0000E9412076CE272E085E593E00E949C08A7
:101BC00066E172E085E593E00E949C0865E172E0C1
:101BD00085E593E00E949C08E4EFF2E080E4DF01F9
:101BE0001D928A95E9F71092340361E089E00E9422
:101BF000FA0361E088E00E94FA0360E088E00E9456
:101C0000CC0390E080E00E943604109254031092BE
:101C100053031092520310924E0310924F031092EE
:101C200050031092510360E273E085E593E00E9457
:101C30009C0862E082E00E94FA0361E08CE00E946E
:101C4000FA0361E08CE00E94CC0361E08DE00E9429
:101C5000FA0360E08DE00E94CC0360E08EE00E9419
:101C6000FA0360E08FE00E94FA0360E080E10E94E6
:101C7000FA036AE673E085E593E00E949C0861E45C
:101C800073E085E593E00E949C0860E473E085E5DD
:101C900093E00E949C0813E061E08DE00E94CC0379
:101CA00068EC70E080E090E00E94C80460E08DE0A5
:101CB0000E94CC0368EC70E080E090E00E94C804D1
:101CC000115051F76E01BBE8CB0ED11CFE01EF574E
:101CD000FF4FCB56DF4FF983E883C559D0409E01B3
:101CE0002F5F3F4F79010E94FB044B015C010E9472
:101CF000FB042B013C01E0EAF6E08491ECEDF6E018
:101D00000491E8ECF6E0149111115FC0809100019C
:101D100081116CC080E08093000182EF93E00E940B
:101D2000AD06892B09F4D4C082EF93E00E94AD0682
:101D3000892B09F4CDC082EF93E00E94C306E091A5
:101D400034038A3019F08D3009F0B0C3EE2361F30B
:101D5000F0E0EC50FD4F108262EA74E085E593E01C
:101D60000E94070564EF72E085E593E00E94730826
:101D70004FE350E064EF72E0CE018F5B9F4F0E9413
:101D8000AC18C058DF4F1882C058D0408E010F5B8E
:101D90001F4FD8018D918D01882309F463C0082E4F
:101DA000000C990B0E948D18F80131978083F1CFB8
:101DB0009E3040F42850310981E001C0880F2A95F7
:101DC000EAF72CCE2E503109F7CF81110E94A303E0
:101DD000E12FF0E0EE0FFF1FEE54F94FA591B49103
:101DE0008C91082309F492CF81E095CF8091F00285
:101DF0009091F102A091F202B091F302A30192013D
:101E0000281B390B4A0B5B0BDA01C901C397A105EB
:101E1000B10508F47FCF4092F0025092F102609237
:101E2000F2027092F3028091530390915403019750
:101E300069F40E94260983EA91E00E9487086DEB0D
:101E400073E085E593E00E949C0864CF0E94B0088F
:101E5000882309F45FCF8EEA91E00E94870864E945
:101E600073E0EFCF65EB71E0CE018F5B9F4F0E9477
:101E70009518892B09F026C20E94B008882309F41E
:101E80001CC267EE73E082EF93E00E949C0888EB2F
:101E900091E00E94870865E874E085E593E00E9480
:101EA0009C08E4EFF2E080E4DF011D928A95E9F7F7
:101EB0001092340361E08DE00E94CC0362E370E095
:101EC00080E090E00E94C80460E08DE00E94CC03B6
:101ED0008091530390915403019709F061C00E94CF
:101EE000FB040091350310913603209137033091A4
:101EF00038032B013C01401A510A620A730A93010C
:101F00008201083E13402105310508F449C0609361
:101F100035037093360380933703909338030E9400
:101F2000E7062B013C0150E4451657E755065BE1F7
:101F300065067104A8F168EF74E085E593E00E94FE
:101F40009C0867EE74E085E593E00E940705C301F5
:101F5000B20120E63AEE40E050E00E946D15CA0161
:101F6000B9014AE00E9421076EED74E085E593E037
:101F70000E949C080E94260982E090E090935403FE
:101F80008093530383E592E00E948C0882E692E0FE
:101F90000E94870860E276E085E593E00E949C0855
:101FA0008091410390914203A0914303B091440377
:101FB00024013501481A590A6A0A7B0AD301C20171
:101FC00088389341A105B105B0F0809153039091F9
:101FD00054038092410390924203A0924303B09233
:101FE0004403019741F46AEF75E085E593E00E94B0
:101FF0009C080E948F0980913D0390913E03A0911F
:102000003F03B091400324013501481A590A6A0A76
:102010007B0AD301C201803D9740A105B10508F4B8
:10202000A5C04090530350905403C956DF4F5982C6
:102030004882C759D04080923D0390923E03A092BF
:102040003F03B09240038EE090E00E9442091B01E2
:102050002C018FE090E00E94420920E030E0A901CD
:102060000E949F153B018C0120E030E040E252E4E9
:10207000772D802F912F0E94631718160CF04EC0F9
:10208000C956DF4F28813981C759D04021303105E9
:1020900009F06CC060E375E085E593E00E949C0860
:1020A00060E088E00E94CC0390E080E00E9436046B
:1020B00082E090E090935403809353031092520374
:1020C0008BE792E00E948C081F930F937F926F9290
:1020D00084E892E09F938F931F9280E48F93FF9206
:1020E000EF920E94BB18C7010E9487086FED75E050
:1020F00085E593E00E94070542E0662D772D802F4D
:10210000912F0E9497076DED75E085E593E00E94A1
:102110009C080FB6F894DEBF0FBECDBF20E030E0C4
:10212000A901C201B1010E949F152B013C0120E0D1
:1021300030E040EF51E40E9463171816BCF4809120
:10214000530390915403019789F466EC75E085E59B
:1021500093E00E94070542E0C301B2010E94970785
:1021600069EA75E085E593E00E949C088091390357
:1021700090913A03A0913B03B0913C0324013501B7
:10218000481A590A6A0A7B0AD301C20184369105AA
:10219000A105B10508F462C08091530390915403E6
:1021A0008092390390923A03A0923B03B0923C0391
:1021B000019709F053C080E10E948E0410E0843141
:1021C0009105A4F09C01990F440B550B2451310942
:1021D00041095109A5EFB0E00E942B152BEE33E029
:1021E00040E050E00E940C151AE0120F80910101AE
:1021F000612E681A7708C30177FE03C09195819517
:10220000910906975CF110930101812F0E94F80853
:10221000882321F16BE875E085E593E00E940705CE
:10222000612F70E090E080E04AE00E94210768E8BA
:1022300075E085E593E00E94070524E6129FC00142
:1022400011246FEF70E00E945F18CB010E946707B6
:1022500065E875E085E593E00E949C0861E08CE00C
:102260000E94CC03809153039091540361E081302C
:10227000910569F060E0029751F40E94FB0428EC9C
:1022800030E040E050E00E946D15622F61708DE0FB
:102290000E94CC0364E670E080E090E00E94C804F5
:1022A00080E090E0892B09F41ECD0E9495058823DB
:1022B00009F419CD0E94000012CD80EC91E00E943B
:1022C0008C08EFCD6AEA71E0CE018F5B9F4F0E94D0
:1022D0009518892B79F40E94260967EE73E082EF46
:1022E00093E00E949C0882ED91E00E94870867E6D7
:1022F00074E0D3CD6BED71E0CE018F5B9F4F0E94F8
:102300009518892B29F40E948F0968E474E0C5CDE3
:1023100062EE71E0CE018F5B9F4F0E949518892B72
:1023200009F05EC08EE090E00E944209C956DF4F7E
:10233000688379838A839B83C759D0408FE090E07C
:102340000E9442092B013C0120E030E0A901C9565E
:10235000DF4F688179818A819B81C759D0400E9473
:102360009F15860121E044E00E94911220E030E0B8
:10237000A901C301B2010E949F158E010F571F4F83
:1023800021E044E00E949112CA56DF4FB881C6593D
:10239000D040BF93CB56DF4FE881C559D040EF9373
:1023A000DF92CF9287EE482E81E0582E5F924F92B7
:1023B0001F9280E48F93FF92EF920E94BB18B701A7
:1023C00082EF93E00E94730864E274E085E593E095
:1023D0000E949C080FB6F894DEBF0FBECDBF61CD42
:1023E00046E050E061E072E0CE018F5B9F4F0E94BB
:1023F0009E18892B09F049C081E490E08C0F9D1F45
:1024000006960E94AF128C018F3F910509F0D0F51E
:102410008091530390915403019749F060E575E072
:1024200085E593E00E949C0881E192E048CF802FEF
:102430000E94F8088823C1F367EE73E082EF93E00F
:102440000E949C081F930F9348E052E05F934F93C4
:102450001F9280E28F93FF92EF920E94BB18C701F8
:102460000E94870868E074E085E593E00E94070514
:10247000C8010E94670768E371E085E593E00E9468
:102480001207A8CF82E292E01ACF86E392E00E9480
:102490008C086AEE73E085E593E00E94070564EF1F
:1024A00072E085E593E00E947308FBCCEF3348F4BB
:1024B00091E09E0F90933403F0E0EC50FD4F808349
:1024C00033CC6AEB74E085E593E00E949C08E4EF6E
:1024D000F2E080E4DF011D928A95E9F7109234035F
:1024E00086E492E00E948C08F3CC8EE191E0909318
:1024F000F3038093F2038091EE029091EF02825FEA
:10250000934071F4E0910504F0910604908180916C
:1025100007048095892380831092EF021092EE02C7
:102520000895EF920F931F93CF93DF93E80134E068
:1025300047FD34E1042E000C550B57FF03C05195A5
:1025400041955109E32E022F242FAE010E94D5128E
:10255000CE01DF91CF911F910F91EF900895FC0173
:1025600088279927E89421912032E9F3293010F047
:102570002E30C8F32B3241F02D3239F4689404C068
:102580000E94CD12820F911D219120532A30C0F359
:102590001EF4909581959F4F08957AE0979F902D16
:1025A000879F802D910D11240895A9E0B0E0EBEDF7
:1025B000F2E10C943C156A01F22EB02E102FFBE3D1
:1025C000AF2EA01608F41BE31F5F012F27E0AE011A
:1025D0004F5F5F4F0E943414BC018981982F99701E
:1025E000913009F43FC09BE2E1FC04C09E2D917044
:1025F000E0FC3AC05E2D5071E82FE87083FF46C0C2
:1026000084E0911101C083E0EF2DE81B8F1508F0E5
:10261000E0E0D6018E2F20E2552351F1992329F0D5
:10262000D6019C93C60101966C0196012D5F3F4F28
:10263000E2FE24C08EE4D6018C9391E411969C9323
:10264000119712968C93D9018E2F90E281111BC0A5
:10265000E20FF32FF11D10828EEF9FEF2996ECE031
:102660000C9458159DE2C6CF90E2C4CF2D938150B3
:102670008111FCCFCE0ED11CE0E0D0CF8EE6D6018A
:102680008C9391E6DBCF9D938150E0CF482F44702F
:1026900082FF3DC084E0911101C083E08F1510F4EA
:1026A000EF2DE81BD6018E2F20E2552309F1992347
:1026B00029F0D6019C93C60101966C0196012D5F0D
:1026C0003F4FE2FE1BC089E4D6018C938EE4119645
:1026D0008C93119786E412968C93D9018E2F90E2F9
:1026E000882309F4B5CF9D938150FACF2D93815063
:1026F0008111FCCFCE0ED11CE0E0D9CF89E6D60106
:102700008C938EE611968C93119786E6E4CF9B010D
:1027100077FF02C030E020E0A1E0B0E0911102C0FC
:10272000B0E0A0E0F9013196AE0FBF1F8B2C912CC9
:10273000BB2009F461C05401EFEFAE1ABE0AAA0D26
:10274000BB1DFA161B0619F014F04F2D4A1B511130
:1027500088C0E3FC59C07601A42FB0E2A1114FC09C
:10276000C40ED11C992309F45BC040E0D601119638
:10277000F60190836D01552309F448C0012F060F1F
:102780009A81582F507184FF03C0913309F401508E
:1027900010160CF047C0093008F008E0EEE2FE2EFB
:1027A0005B01A01AB10885019194819491082F3F93
:1027B000320729F4D601FC92F60131966F016217B7
:1027C000730794F1021713077CF5DB01A21BB30B0F
:1027D000AA24A394B12CAC0EBD1EAA0DBB1D11964C
:1027E0008C9121503109D601119628153905F4F044
:1027F000F60180836D01DBCFB12CA12CA0CFF701B6
:10280000B1937F01A150AACF9111B0CFD601942FDF
:1028100050E302C05D9391509111FCCFC40ED11CC6
:1028200040E0ACCF01E0BACF80E3DBCF62177307A3
:1028300031F4963388F4953311F4552369F0F60199
:102840008083FD01842F90E2811108C0A40FB11D87
:102850001C9290E080E002CF81E3F1CF9193815010
:10286000F3CF911183CF8ACF283008F027E03327A8
:10287000DA01990F311D87FD9160009661057105A0
:1028800039F432602E5F3D9330E32A95E1F70895E5
:102890009F3F30F080387105610509F03C5F3C5F77
:1028A0003D93913008F08068911DDF93CF931F9383
:1028B0000F93FF92EF92192F987F9695E92F969597
:1028C0009695E90FFF27E45EFE4F99273327EE2404
:1028D000FF24A701E70105900894079428F4360F18
:1028E000E71EF81E491F511D660F771F881F991F8D
:1028F0000694A1F70590079428F4E70EF81E491FE7
:10290000561FC11D770F881F991F661F0694A1F7D8
:102910000590079428F4F80E491F561FC71FD11DB4
:10292000880F991F661F771F0694A1F705900794DB
:1029300020F4490F561FC71FD81F990F661F771F16
:10294000881F0694A9F784911095177041F0D695C9
:10295000C79557954795F794E7941A95C1F7E2EC18
:10296000F0E06894159015913591659195910590D9
:102970007FE27395E118F10A430B560BC90BD0099E
:10298000C0F7E10CF11E431F561FC91FD01D7EF476
:10299000703311F48A95E6CFE894015030F0080FB7
:1029A0000AF40027021708F4202F2395022F7A3308
:1029B00028F079E37D932A95E9F710C07D932A9555
:1029C00089F6069497956795379517951794E118AA
:1029D000F10A430B560BC90BD00998F023957E9151
:1029E00073957A3308F070E37C932013B8F77E91E7
:1029F00070617D9330F0839571E37D9370E32A9548
:102A0000E1F71124EF90FF900F911F91CF91DF918B
:102A1000992787FD90950895052E97FB1EF4009445
:102A20000E94231557FD07D00E946D1507FC03D0A7
:102A30004EF40C94231550954095309521953F4FB9
:102A40004F4F5F4F089590958095709561957F4F9A
:102A50008F4F9F4F08950E948F15A59F900DB49F93
:102A6000900DA49F800D911D112408952F923F92E7
:102A70004F925F926F927F928F929F92AF92BF928E
:102A8000CF92DF92EF92FF920F931F93CF93DF933A
:102A9000CDB7DEB7CA1BDB0B0FB6F894DEBF0FBE97
:102AA000CDBF09942A88398848885F846E847D84E4
:102AB0008C849B84AA84B984C884DF80EE80FD80E6
:102AC0000C811B81AA81B981CE0FD11D0FB6F8945C
:102AD000DEBF0FBECDBFED010895A1E21A2EAA1BE5
:102AE000BB1BFD010DC0AA1FBB1FEE1FFF1FA217BE
:102AF000B307E407F50720F0A21BB30BE40BF50BBB
:102B0000661F771F881F991F1A9469F76095709543
:102B1000809590959B01AC01BD01CF010895A29FC6
:102B2000B001B39FC001A39F700D811D1124911DA1
:102B3000B29F700D811D1124911D08955058BB271F
:102B4000AA270E94B6150C9429170E941B1738F06B
:102B50000E94221720F039F49F3F19F426F40C94B8
:102B600018170EF4E095E7FB0C941217E92F0E945A
:102B70003A1758F3BA17620773078407950720F0CE
:102B800079F4A6F50C945C170EF4E0950B2EBA2F91
:102B9000A02D0B01B90190010C01CA01A001112463
:102BA000FF27591B99F0593F50F4503E68F11A160F
:102BB000F040A22F232F342F4427585FF3CF4695A0
:102BC00037952795A795F0405395C9F77EF41F16C2
:102BD000BA0B620B730B840BBAF09150A1F0FF0F8C
:102BE000BB1F661F771F881FC2F70EC0BA0F621F78
:102BF000731F841F48F4879577956795B795F79568
:102C00009E3F08F0B0CF9395880F08F09927EE0FFC
:102C10009795879508950E94EE1608F481E008952F
:102C20000E9424160C9429170E94221758F00E9423
:102C30001B1740F029F45F3F29F00C941217511133
:102C40000C945D170C9418170E943A1768F3992397
:102C5000B1F3552391F3951B550BBB27AA27621798
:102C60007307840738F09F5F5F4F220F331F441FA5
:102C7000AA1FA9F335D00E2E3AF0E0E832D09150D9
:102C80005040E695001CCAF72BD0FE2F29D0660FC6
:102C9000771F881FBB1F261737074807AB07B0E809
:102CA00009F0BB0B802DBF01FF2793585F4F3AF00F
:102CB0009E3F510578F00C9412170C945D175F3FFE
:102CC000E4F3983ED4F3869577956795B795F79595
:102CD0009F5FC9F7880F911D9695879597F908957D
:102CE000E1E0660F771F881FBB1F62177307840719
:102CF000BA0720F0621B730B840BBA0BEE1F88F728
:102D0000E09508950E94421788F09F5798F0B92FD8
:102D10009927B751B0F0E1F0660F771F881F991F10
:102D20001AF0BA95C9F714C0B13091F00E945C173F
:102D3000B1E008950C945C17672F782F8827B85F4F
:102D400039F0B93FCCF3869577956795B395D9F768
:102D50003EF490958095709561957F4F8F4F9F4F72
:102D60000895E89409C097FB3EF49095809570957E
:102D700061957F4F8F4F9F4F9923A9F0F92F96E9C7
:102D8000BB279395F695879577956795B795F1113C
:102D9000F8CFFAF4BB0F11F460FF1BC06F5F7F4FD9
:102DA0008F4F9F4F16C0882311F096E911C07723EB
:102DB00021F09EE8872F762F05C0662371F096E8F4
:102DC000862F70E060E02AF09A95660F771F881FC3
:102DD000DAF7880F9695879597F90895990F000867
:102DE000550FAA0BE0E8FEEF16161706E807F907DD
:102DF000C0F012161306E407F50798F0621B730B78
:102E0000840B950B39F40A2661F0232B242B252BF8
:102E100021F408950A2609F4A140A6958FEF811D9B
:102E2000811D089597F99F6780E870E060E008953C
:102E30009FEF80EC089500240A94161617061806D2
:102E40000906089500240A941216130614060506AE
:102E50000895092E0394000C11F4882352F0BB0F3F
:102E600040F4BF2B11F460FF04C06F5F7F4F8F4FA2
:102E70009F4F089557FD9058440F551F59F05F3FDD
:102E800071F04795880F97FB991F61F09F3F79F08C
:102E900087950895121613061406551FF2CF46950E
:102EA000F1DF08C0161617061806991FF1CF869590
:102EB0007105610508940895E894BB276627772774
:102EC000CB0197F908950E94EE1608F48FEF08954C
:102ED00016F00C942A180C94181768940C94121776
:102EE0000E944217A8F39923C1F3AEF3DF93CF9367
:102EF0001F930F93FF92C92FDD2788232AF0219774
:102F0000660F771F881FDAF720E030E040E85FEBBC
:102F10009FE3883920F0803E38F021968F770E9419
:102F20009F15E8E6F0E004C00E949F15E5E9F0E097
:102F30000E9438188B01BE01EC01FB2E6F577109FE
:102F40007595771F880B990B0E94B31628E132E71D
:102F500041E35FE30E94CB17AF2D9801AE01FF90D4
:102F60000F911F91CF91DF910E94B6150C942917F4
:102F70000E94CB170C9429170E941B1738F00E944F
:102F8000221720F0952311F00C9412170C941817A7
:102F900011240C945D170E943A1770F3959FC1F3AA
:102FA000950F50E0551F629FF001729FBB27F00DF7
:102FB000B11D639FAA27F00DB11DAA1F649F66274C
:102FC000B00DA11D661F829F2227B00DA11D621F9B
:102FD000739FB00DA11D621F839FA00D611D221F55
:102FE000749F3327A00D611D231F849F600D211D39
:102FF000822F762F6A2F11249F5750409AF0F1F0BC
:1030000088234AF0EE0FFF1FBB1F661F771F881F24
:1030100091505040A9F79E3F510580F00C94121733
:103020000C945D175F3FE4F3983ED4F38695779553
:103030006795B795F795E7959F5FC1F7FE2B880FCA
:10304000911D9695879597F908950E94EE16880B25
:10305000990B08959F3F31F0915020F48795779513
:103060006795B795880F911D9695879597F908955F
:10307000DF93CF931F930F93FF92EF92DF927B0129
:103080008C01689406C0DA2EEF010E94CB17FE0176
:10309000E894A5912591359145915591A6F3EF01BD
:1030A0000E94B615FE019701A801DA9469F7DF9036
:1030B000EF90FF900F911F91CF91DF91089597FBB3
:1030C000072E16F4009407D077FD09D00E947318DC
:1030D00007FC05D03EF4909581959F4F089570951B
:1030E00061957F4F0895AA1BBB1B51E107C0AA1F22
:1030F000BB1FA617B70710F0A61BB70B881F991F99
:103100005A95A9F780959095BC01CD010895EE0FD1
:10311000FF1F0590F491E02D0994911108958156B7
:103120008A5108F4805285580895FB01DC018D9185
:10313000019080190110D9F3990B0895FB01DC016E
:103140004150504030F08D910190801919F40020C9
:10315000B9F7881B990B0895FB01DC0141505040E1
:1031600048F001900D920020C9F701C01D92415016
:103170005040E0F70895AEE0B0E0E1ECF8E10C94E7
:1031800044150D891E898F89988D26E02C831A831A
:10319000098397FF02C080E090E801979E838D83AA
:1031A000AE01455E5F4F698D7A8DCE0101960E941A
:1031B000EB184D815E8157FD0AC02F81388542177B
:1031C00053070CF49A01020F131FF80110822E9678
:1031D000E4E00C946015ABE0B0E0E1EFF8E10C94B2
:1031E00036157C013B018A01FC011782168283811E
:1031F00081FFC8C1CE0101965C01F7019381F30103
:1032000093FD859193FF81913F01882309F453C178
:10321000853239F493FD859193FF81913F01853289
:1032200029F4B70190E00E94DB1AE7CF912C212C02
:10323000312CFFE1F31538F08B3211F190F480322C
:1032400009F1833229F137FC3CC020ED280F2A30E8
:1032500050F536FE20C08AE0989E200D1124922E53
:1032600006C08D3291F0803371F7689430F8F30125
:1032700093FD859193FF81913F018111DACF21C0A8
:10328000689431F8689432F8F2CF689433F8EFCF4D
:10329000689434F8ECCFEAE02E9E200D1124222E03
:1032A000689435F8E4CF8E3229F436FC04C1689472
:1032B00036F8DDCF8C3619F4689437F8D8CF8836D5
:1032C000B1F2982F9F7D95549330E0F08336A1F1B1
:1032D0008337C1F1833509F063C02801F2E04F0E56
:1032E000511CF801C080D180692D70E036FC02C00D
:1032F0006FEF7FEFC6010E94C51A4C01689437F842
:1033000082010AC00C5F1F4FFFE3F9838824839476
:10331000912C6501E89437F833FE2DC0522C8114AE
:10332000910471F5552009F468CFB70180E290E06F
:103330000E94DB1A5A94F6CFF801808189830E5FD0
:103340001F4FE4CF2801F2E04F0E511CF801C0805E
:10335000D180692D70E036FC02C06FEF7FEFC601AF
:103360000E94D01A4C018201D5CFB70180E290E0D3
:103370000E94DB1A2A942814190409F0B0F7CECF62
:10338000F60137FC859137FE81916F01B70190E01E
:103390000E94DB1A51105A94F1E08F1A9108BFCFA6
:1033A000843619F0893609F077C0F80137FE6BC012
:1033B00060817181828193810C5F1F4FF32DFF76B5
:1033C0003F2E97FF09C090958095709561957F4F2E
:1033D0008F4F9F4F689437F82AE030E0A5010E9494
:1033E0000B1BC82ECA188C2C432C36FE0CC0E8943C
:1033F00040F8C91440F434FE05C032FC03C0F32D7C
:10340000FE7E4F2E892C44FE95C0FE01EC0DF11D71
:103410008081803309F087C0242D297E422E842D9F
:103420008870582E43FC95C040FE8FC09C2C82149F
:1034300018F42C0C922C981844FE91C0B70180E32C
:1034400090E00E94DB1A42FE09C088E790E041FE4E
:1034500002C088E590E0B7010E94DB1AC91408F4A5
:103460008AC0CA94D12C9FEFC91AD90ACA0CDB1C96
:10347000F60182916F01B70190E00E94DB1AAC1453
:10348000BD04B1F74FCF60817181072E000C880B0E
:10349000990B0E5F1F4F92CFD32CE894D4F82AE0FB
:1034A00030E0853739F1232D297FD22E8F3601F177
:1034B00048F48835A9F0F701868197812B96E2E1DF
:1034C0000C945215803749F08837A9F7D4FE02C012
:1034D0006894D2F820E130E00DC06894D4F8F6CFBB
:1034E00034FE03C0822F8660D82E20E132E002C075
:1034F00028E030E0F801D7FE0FC060817181828141
:1035000093810C5F1F4FA5010E940B1BC82ECA1888
:103510003D2CE89437F867CF6081718190E080E0BE
:103520000E5F1F4FF0CF42FC02C0839478CF83948C
:10353000839475CF842D867809F471CFF6CFB701C7
:1035400080E290E00E94DB1A83948214C0F3512C35
:1035500073CF522C5818821408F46ECFF8CF842DF4
:10356000867809F47BCF8BE241FE80E247FC8DE256
:10357000B70190E071CFB70180E390E00E94DB1AC1
:103580009A946CCF8FEF9FEF99CFFC01059061501B
:1035900070400110D8F7809590958E0F9F1F089569
:1035A000FC016150704001900110D8F78095909512
:1035B0008E0F9F1F08950F931F93CF93DF93182FA4
:1035C000092FEB018B8181FD09C01FEF0FEF812FC8
:1035D000902FDF91CF911F910F91089582FF14C01A
:1035E0002E813F818C819D81281739073CF4E88129
:1035F000F981CF0101969983888310838E819F8101
:1036000001969F838E83E3CFE885F985812F099505
:10361000892BA1F3DACFFA01AA27283051F1203102
:1036200081F1E8946F936E7F6E5F7F4F8F4F9F4F56
:10363000AF4FB1E03ED0B4E03CD0670F781F891F98
:103640009A1FA11D680F791F8A1F911DA11D6A0F66
:10365000711D811D911DA11D20D009F468943F9119
:103660002AE0269F11243019305D3193DEF6CF0118
:103670000895462F4770405D4193B3E00FD0C9F7DE
:10368000F6CF462F4F70405D4A3318F0495D31FD4B
:103690004052419302D0A9F7EACFB4E0A69597959E
:1036A000879577956795BA95C9F700976105710574
:1036B00008959B01AC010A2E0694579547953795BE
:1036C0002795BA95C9F7620F731F841F951FA01D18
:1036D000089513E0C8E7D3E004C0FE010E948718F4
:1036E0002196C937D107C9F7F894FFCF01B4AA01D1
:1036F000B501A50200000000CB052B0558051806F2
:10370000890567057B050000000051062B05E406CE
:103710005006AD06C30638066E616E00696E66001F
:103720006F7666000D0A00554E4B4E4F574E0053B4
:10373000746174653A25732C53706565643A256429
:1037400025252C52756E74696D653A256C756D2C46
:1037500052656D61696E696E673A256C756D0053CF
:10376000746174653A2573005354415455533A7B40
:1037700025732C576174657254656D703A257343D7
:103780002C536B696E54656D703A2573437D004D03
:10379000414E55414C3A4F4646004D414E55414CE5
:1037A0003A4F4E0050554D503A4F4E0050554D50E7
:1037B0005F53544152545F4641494C454400505573
:1037C0004D503A4F464600535441545553005445CA
:1037D0004D500054454D503A7B57617465723A25FF
:1037E00073432C536B696E3A2573437D00535045E8
:1037F00045443A0053504545443A25640050554DE0
:10380000505F4E4F545F52554E4E494E4700494E01
:1038100056414C49445F53504545445F56414C55D1
:103820004500554E4B4E4F574E5F434F4D4D414E09
:103830004400434D445F544F4F5F4C4F4E4700533D
:1038400041464554595F534855544F4646004D61D3
:1038500078696D756D2072756E74696D6520657817
:10386000636565646564004F5645524845415400A0
:10387000536B696E2074656D7065726174757265E5
:1038800020746F6F20686967683A20252E3166437F
:08389000004552524F520000A6
:107800000C94343C0C94513C0C94513C0C94513CE1
:107810000C94513C0C94513C0C94513C0C94513CB4
:107820000C94513C0C94513C0C94513C0C94513CA4
:107830000C94513C0C94513C0C94513C0C94513C94
:107840000C94513C0C94513C0C94513C0C94513C84
:107850000C94513C0C94513C0C94513C0C94513C74
:107860000C94513C0C94513C11241FBECFEFD8E036
:10787000DEBFCDBF11E0A0E0B1E0ECE9FFE702C060
:1078800005900D92A230B107D9F712E0A2E0B1E065
:1078900001C01D92AD30B107E1F70E942D3D0C945F
:1078A000CC3F0C94003C982F959595959595959582
:1078B000905D8F708A307CF0282F295A8091C0000B
:1078C00085FFFCCF9093C6008091C00085FFFCCF60
:1078D0002093C6000895282F205DF0CF982F809127
:1078E000C00085FFFCCF9093C6000895EF92FF92F1
:1078F0000F931F93EE24FF2487018091C00087FD22
:1079000017C00894E11CF11C011D111D81E4E8164B
:1079100082E4F8068FE0080780E0180770F3E09132
:107920000401F091050109958091C00087FFE9CF1E
:107930008091C6001F910F91FF90EF9008950E94D3
:10794000763C982F8091C00085FFFCCF9093C600B5
:1079500091362CF490330CF09053892F089597555D
:10796000892F08951F930E949F3C182F0E949F3CCF
:107970001295107F810F1F9108951F93182F882350
:1079800021F00E94763C1150E1F71F9108951F935A
:10799000182F0E94763C803249F0809103018F5F5E
:1079A000809303018530C1F01F9108958091C0003C
:1079B00085FFFCCF84E18093C6008091C00085FFE5
:1079C000FCCF1093C6008091C00085FFFCCF80E102
:1079D0008093C6001F910895E0910401F091050184
:1079E00009951F9108950E94763C803241F0809164
:1079F00003018F5F80930301853081F008958091AA
:107A0000C00085FFFCCF84E18093C6008091C00058
:107A100085FFFCCF80E18093C6000895E0910401CA
:107A2000F09105010995089540E951E08823A1F0FE
:107A30002D9A28EE33E0FA013197F1F721503040CA
:107A4000D1F72D9828EE33E0FA013197F1F7215064
:107A50003040D1F7815061F708953F924F925F9285
:107A60006F927F928F929F92AF92BF92CF92DF924E
:107A7000EF92FF920F931F93CF93DF93000080E16B
:107A80008093C4001092C50088E18093C10086E015
:107A90008093C2005098589A259A81E00E94143D24
:107AA00024E1F22E9EE1E92E85E9D82E0FE0C02ECA
:107AB00010E1B12EAA24A394B1E49B2EA6E58A2E50
:107AC000F2E57F2EE0E26E2E79E4572E63E5462E36
:107AD00050E5352E0E94763C8033B1F18133B9F107
:107AE000803409F46FC0813409F476C0823409F41B
:107AF00085C0853409F488C0803531F1823521F1A3
:107B0000813511F1853509F485C0863509F48DC0BC
:107B1000843609F496C0843709F403C1853709F423
:107B200072C1863709F466C0809103018F5F80932C
:107B30000301853079F6E0910401F0910501099582
:107B40000E94763C803351F60E94F33CC3CF0E94E2
:107B5000763C803249F78091C00085FFFCCFF092DF
:107B6000C6008091C00085FFFCCF9092C600809136
:107B7000C00085FFFCCF8092C6008091C00085FFC9
:107B8000FCCF7092C6008091C00085FFFCCF609250
:107B9000C6008091C00085FFFCCF5092C600809146
:107BA000C00085FFFCCF4092C6008091C00085FFD9
:107BB000FCCF3092C6008091C00085FFFCCFB09210
:107BC000C60088CF0E94763C863808F4BDCF0E945C
:107BD000763C0E94F33C7ECF0E94763C803809F4CC
:107BE0009CC0813809F40BC1823809F43CC1883942
:107BF00009F48FC080E00E94C73C6CCF84E10E94F2
:107C0000BD3C0E94F33C66CF85E00E94BD3C0E94D3
:107C1000F33C60CF0E94763C809306010E94763C44
:107C2000809307010E94F33C55CF0E94763C80333D
:107C300009F41DC183E00E94BD3C80E00E94C73C66
:107C400049CF0E94763C809309020E94763C809343
:107C5000080280910C028E7F80930C020E94763C79
:107C6000853409F415C18091080290910902892B8D
:107C700089F000E010E00E94763CF801E85FFE4FDA
:107C800080830F5F1F4F80910802909109020817AF
:107C9000190788F30E94763C803209F045CF809125
:107CA0000C0280FF01C16091060170910701660F0F
:107CB000771F7093070160930601A0910802B091AD
:107CC00009021097C9F0E8E0F1E09B01AD014E0F09
:107CD0005F1FF999FECF32BD21BD819180BDFA9A17
:107CE000F99A2F5F3F4FE417F50799F76A0F7B1F4B
:107CF00070930701609306018091C00085FFFCCF5F
:107D0000F092C6008091C00085FFFCCFB092C60003
:107D1000E1CE83E00E94C73CDDCE82E00E94C73CFA
:107D2000D9CE0E94763C809309020E94763C8093D3
:107D300008028091060190910701880F991F909386
:107D40000701809306010E94763C853409F4A6C0A1
:107D500080910C028E7F80930C020E94763C8032D0
:107D600009F0B8CE8091C00085FFFCCFF092C6002C
:107D7000609108027091090261157105B9F140E046
:107D800050E080910C02A82FA170B82FB27011C0E2
:107D9000BB2309F45CC0E0910601F0910701319624
:107DA000F0930701E09306014F5F5F4F46175707B7
:107DB000E8F4AA2369F3F999FECF209106013091E6
:107DC000070132BD21BDF89A90B58091C00085FFB2
:107DD000FCCF9093C6002F5F3F4F30930701209355
:107DE00006014F5F5F4F4617570718F38091C00099
:107DF00085FDE5CE8091C00085FFF8CFE0CE81E023
:107E00000E94C73C67CE0E94763C803209F08CCE3F
:107E10008091C00085FFFCCFF092C6008091C00029
:107E200085FFFCCFE092C6008091C00085FFFCCFAB
:107E3000D092C6008091C00085FFFCCFC092C600E2
:107E40008091C00085FFFCCFB092C60043CEE09188
:107E50000601F091070194918091C00085FFFCCF4D
:107E60009093C6009CCF80E10E94C73C33CE0E9415
:107E7000763C0E94763C182F0E94763C112309F430
:107E800083C0113009F484C08FE00E94C73C22CE29
:107E900080910C02816080930C02E5CE80910C02EF
:107EA000816080930C0259CF809107018823880F4D
:107EB000880B8A2180930B02809106019091070123
:107EC000880F991F90930701809306018091080203
:107ED00080FF09C080910802909109020196909359
:107EE000090280930802F894F999FECF1127E091D6
:107EF0000601F0910701C8E0D1E08091080290915D
:107F00000902103091F40091570001700130D9F34B
:107F100003E000935700E89500915700017001308D
:107F2000D9F301E100935700E89509901990009169
:107F3000570001700130D9F301E000935700E89534
:107F40001395103498F011270091570001700130FB
:107F5000D9F305E000935700E895009157000170B0
:107F60000130D9F301E100935700E895329602976A
:107F700009F0C7CF103011F00296E5CF112480919F
:107F8000C00085FFB9CEBCCE8EE10E94C73CA2CD19
:0E7F900085E90E94C73C9ECDF894FFCF80008B
:00000001FF
